{
  "contractName": "HealthIDVerification",
  "abi": [
    {
      "anonymous": false,
      "inputs": [
        {
          "indexed": false,
          "internalType": "string",
          "name": "healthID",
          "type": "string"
        },
        {
          "indexed": false,
          "internalType": "address",
          "name": "sender",
          "type": "address"
        }
      ],
      "name": "HealthIDStored",
      "type": "event"
    },
    {
      "anonymous": false,
      "inputs": [
        {
          "indexed": false,
          "internalType": "string",
          "name": "healthID",
          "type": "string"
        },
        {
          "indexed": false,
          "internalType": "bool",
          "name": "isValid",
          "type": "bool"
        }
      ],
      "name": "HealthIDVerified",
      "type": "event"
    },
    {
      "inputs": [
        {
          "internalType": "string",
          "name": "healthID",
          "type": "string"
        }
      ],
      "name": "storeHealthID",
      "outputs": [],
      "stateMutability": "nonpayable",
      "type": "function"
    },
    {
      "inputs": [
        {
          "internalType": "string",
          "name": "healthID",
          "type": "string"
        },
        {
          "internalType": "bytes32",
          "name": "hash",
          "type": "bytes32"
        },
        {
          "internalType": "uint8",
          "name": "v",
          "type": "uint8"
        },
        {
          "internalType": "bytes32",
          "name": "r",
          "type": "bytes32"
        },
        {
          "internalType": "bytes32",
          "name": "s",
          "type": "bytes32"
        }
      ],
      "name": "verifyHealthID",
      "outputs": [
        {
          "internalType": "bool",
          "name": "",
          "type": "bool"
        }
      ],
      "stateMutability": "nonpayable",
      "type": "function"
    }
  ],
  "bytecode": "0x608060405234801561001057600080fd5b50610705806100206000396000f3fe608060405234801561001057600080fd5b5060043610610053576000357c010000000000000000000000000000000000000000000000000000000090048063d799665614610058578063f01776c414610088575b600080fd5b610072600480360381019061006d91906103e3565b6100a4565b60405161007f9190610495565b60405180910390f35b6100a2600480360381019061009d91906104b0565b6101a7565b005b600080600186868686604051600081526020016040526040516100ca9493929190610517565b6020604051602081039080840390855afa1580156100ec573d6000803e3d6000fd5b5050506020604051035190506000808860405161010991906105cd565b908152602001604051809103902060009054906101000a900460ff16801561015e5750600073ffffffffffffffffffffffffffffffffffffffff168273ffffffffffffffffffffffffffffffffffffffff1614155b90507fb09135b1179039bda7021b3ace3d2e6ff0385c91f0e63a0b46d61e19db4f872e888260405161019192919061062e565b60405180910390a1809250505095945050505050565b60016000826040516101b991906105cd565b908152602001604051809103902060006101000a81548160ff0219169083151502179055507fdabd028a19307fb1a76ec5b847efa567f7e5d3f237866dbe90e936a7c942f465813360405161020f92919061069f565b60405180910390a150565b6000604051905090565b600080fd5b600080fd5b600080fd5b600080fd5b6000601f19601f8301169050919050565b7f4e487b7100000000000000000000000000000000000000000000000000000000600052604160045260246000fd5b61028182610238565b810181811067ffffffffffffffff821117156102a05761029f610249565b5b80604052505050565b60006102b361021a565b90506102bf8282610278565b919050565b600067ffffffffffffffff8211156102df576102de610249565b5b6102e882610238565b9050602081019050919050565b82818337600083830152505050565b6000610317610312846102c4565b6102a9565b90508281526020810184848401111561033357610332610233565b5b61033e8482856102f5565b509392505050565b600082601f83011261035b5761035a61022e565b5b813561036b848260208601610304565b91505092915050565b6000819050919050565b61038781610374565b811461039257600080fd5b50565b6000813590506103a48161037e565b92915050565b600060ff82169050919050565b6103c0816103aa565b81146103cb57600080fd5b50565b6000813590506103dd816103b7565b92915050565b600080600080600060a086880312156103ff576103fe610224565b5b600086013567ffffffffffffffff81111561041d5761041c610229565b5b61042988828901610346565b955050602061043a88828901610395565b945050604061044b888289016103ce565b935050606061045c88828901610395565b925050608061046d88828901610395565b9150509295509295909350565b60008115159050919050565b61048f8161047a565b82525050565b60006020820190506104aa6000830184610486565b92915050565b6000602082840312156104c6576104c5610224565b5b600082013567ffffffffffffffff8111156104e4576104e3610229565b5b6104f084828501610346565b91505092915050565b61050281610374565b82525050565b610511816103aa565b82525050565b600060808201905061052c60008301876104f9565b6105396020830186610508565b61054660408301856104f9565b61055360608301846104f9565b95945050505050565b600081519050919050565b600081905092915050565b60005b83811015610590578082015181840152602081019050610575565b60008484015250505050565b60006105a78261055c565b6105b18185610567565b93506105c1818560208601610572565b80840191505092915050565b60006105d9828461059c565b915081905092915050565b600082825260208201905092915050565b60006106008261055c565b61060a81856105e4565b935061061a818560208601610572565b61062381610238565b840191505092915050565b6000604082019050818103600083015261064881856105f5565b90506106576020830184610486565b9392505050565b600073ffffffffffffffffffffffffffffffffffffffff82169050919050565b60006106898261065e565b9050919050565b6106998161067e565b82525050565b600060408201905081810360008301526106b981856105f5565b90506106c86020830184610690565b939250505056fea264697066735822122091e329b159405ab7a8c55977a6711b0f2436111c477d602e1c19cb6293619aa164736f6c63430008150033",
  "immutableReferences": {},
  "source": "// SPDX-License-Identifier: MIT\r\npragma solidity ^0.8.0;\r\n\r\ncontract HealthIDVerification {\r\n    // Mapping to store the Health-IDs\r\n    mapping(string => bool) private healthIDs;\r\n\r\n    // Event to log when a Health-ID is stored\r\n    event HealthIDStored(string healthID, address sender);\r\n    \r\n    // Event to log the result of Health-ID verification\r\n    event HealthIDVerified(string healthID, bool isValid);\r\n\r\n    // Function to store a Health-ID\r\n    function storeHealthID(string memory healthID) public {\r\n        healthIDs[healthID] = true;\r\n        emit HealthIDStored(healthID, msg.sender);\r\n    }\r\n\r\n    // Function to verify the Health-ID signature using ECDSA\r\n    function verifyHealthID(\r\n    string memory healthID,\r\n    bytes32 hash,\r\n    uint8 v,\r\n    bytes32 r,\r\n    bytes32 s\r\n) public returns (bool) {\r\n    // Recover the signer from the signature\r\n    address signer = ecrecover(hash, v, r, s);\r\n\r\n    // Check if the Health-ID exists and the signer is valid\r\n    bool isValid = (healthIDs[healthID] && signer != address(0));\r\n\r\n    // Emit the verification result\r\n    emit HealthIDVerified(healthID, isValid);\r\n    return isValid;\r\n}\r\n\r\n}",
  "sourcePath": "D:\\STUDY MATERIALS\\SEM 7\\Cryptography\\health-id-project\\contracts\\HealthIDVerification.sol",
  "compiler": {
    "name": "solc",
    "version": "0.8.21+commit.d9974bed.Emscripten.clang"
  },
  "schemaVersion": "3.4.16",
  "updatedAt": "2024-10-03T09:17:10.393Z",
  "networkType": "ethereum",
  "devdoc": {
    "kind": "dev",
    "methods": {},
    "version": 1
  },
  "userdoc": {
    "kind": "user",
    "methods": {},
    "version": 1
  }
}